{
    "_format": "hh-sol-artifact-1",
    "contractName": "MyEpicNFT",
    "sourceName": "contracts/MyEpicNFT.sol",
    "abi": [
        {
            "inputs": [],
            "stateMutability": "nonpayable",
            "type": "constructor"
        },
        {
            "anonymous": false,
            "inputs": [
                {
                    "indexed": true,
                    "internalType": "address",
                    "name": "owner",
                    "type": "address"
                },
                {
                    "indexed": true,
                    "internalType": "address",
                    "name": "approved",
                    "type": "address"
                },
                {
                    "indexed": true,
                    "internalType": "uint256",
                    "name": "tokenId",
                    "type": "uint256"
                }
            ],
            "name": "Approval",
            "type": "event"
        },
        {
            "anonymous": false,
            "inputs": [
                {
                    "indexed": true,
                    "internalType": "address",
                    "name": "owner",
                    "type": "address"
                },
                {
                    "indexed": true,
                    "internalType": "address",
                    "name": "operator",
                    "type": "address"
                },
                {
                    "indexed": false,
                    "internalType": "bool",
                    "name": "approved",
                    "type": "bool"
                }
            ],
            "name": "ApprovalForAll",
            "type": "event"
        },
        {
            "anonymous": false,
            "inputs": [
                {
                    "indexed": false,
                    "internalType": "address",
                    "name": "sender",
                    "type": "address"
                },
                {
                    "indexed": false,
                    "internalType": "uint256",
                    "name": "tokenId",
                    "type": "uint256"
                }
            ],
            "name": "NewEpicNFTMinted",
            "type": "event"
        },
        {
            "anonymous": false,
            "inputs": [
                {
                    "indexed": true,
                    "internalType": "address",
                    "name": "from",
                    "type": "address"
                },
                {
                    "indexed": true,
                    "internalType": "address",
                    "name": "to",
                    "type": "address"
                },
                {
                    "indexed": true,
                    "internalType": "uint256",
                    "name": "tokenId",
                    "type": "uint256"
                }
            ],
            "name": "Transfer",
            "type": "event"
        },
        {
            "inputs": [
                {
                    "internalType": "address",
                    "name": "to",
                    "type": "address"
                },
                {
                    "internalType": "uint256",
                    "name": "tokenId",
                    "type": "uint256"
                }
            ],
            "name": "approve",
            "outputs": [],
            "stateMutability": "nonpayable",
            "type": "function"
        },
        {
            "inputs": [
                {
                    "internalType": "address",
                    "name": "owner",
                    "type": "address"
                }
            ],
            "name": "balanceOf",
            "outputs": [
                {
                    "internalType": "uint256",
                    "name": "",
                    "type": "uint256"
                }
            ],
            "stateMutability": "view",
            "type": "function"
        },
        {
            "inputs": [
                {
                    "internalType": "uint256",
                    "name": "tokenId",
                    "type": "uint256"
                }
            ],
            "name": "getApproved",
            "outputs": [
                {
                    "internalType": "address",
                    "name": "",
                    "type": "address"
                }
            ],
            "stateMutability": "view",
            "type": "function"
        },
        {
            "inputs": [],
            "name": "getTotalNFTsMinted",
            "outputs": [
                {
                    "internalType": "uint256",
                    "name": "",
                    "type": "uint256"
                }
            ],
            "stateMutability": "view",
            "type": "function"
        },
        {
            "inputs": [
                {
                    "internalType": "address",
                    "name": "owner",
                    "type": "address"
                },
                {
                    "internalType": "address",
                    "name": "operator",
                    "type": "address"
                }
            ],
            "name": "isApprovedForAll",
            "outputs": [
                {
                    "internalType": "bool",
                    "name": "",
                    "type": "bool"
                }
            ],
            "stateMutability": "view",
            "type": "function"
        },
        {
            "inputs": [],
            "name": "makeAnEpicNFT",
            "outputs": [],
            "stateMutability": "nonpayable",
            "type": "function"
        },
        {
            "inputs": [],
            "name": "name",
            "outputs": [
                {
                    "internalType": "string",
                    "name": "",
                    "type": "string"
                }
            ],
            "stateMutability": "view",
            "type": "function"
        },
        {
            "inputs": [
                {
                    "internalType": "uint256",
                    "name": "tokenId",
                    "type": "uint256"
                }
            ],
            "name": "ownerOf",
            "outputs": [
                {
                    "internalType": "address",
                    "name": "",
                    "type": "address"
                }
            ],
            "stateMutability": "view",
            "type": "function"
        },
        {
            "inputs": [
                {
                    "internalType": "uint256",
                    "name": "tokenId",
                    "type": "uint256"
                }
            ],
            "name": "pickRandomWord",
            "outputs": [
                {
                    "internalType": "string",
                    "name": "",
                    "type": "string"
                }
            ],
            "stateMutability": "view",
            "type": "function"
        },
        {
            "inputs": [
                {
                    "internalType": "address",
                    "name": "from",
                    "type": "address"
                },
                {
                    "internalType": "address",
                    "name": "to",
                    "type": "address"
                },
                {
                    "internalType": "uint256",
                    "name": "tokenId",
                    "type": "uint256"
                }
            ],
            "name": "safeTransferFrom",
            "outputs": [],
            "stateMutability": "nonpayable",
            "type": "function"
        },
        {
            "inputs": [
                {
                    "internalType": "address",
                    "name": "from",
                    "type": "address"
                },
                {
                    "internalType": "address",
                    "name": "to",
                    "type": "address"
                },
                {
                    "internalType": "uint256",
                    "name": "tokenId",
                    "type": "uint256"
                },
                {
                    "internalType": "bytes",
                    "name": "data",
                    "type": "bytes"
                }
            ],
            "name": "safeTransferFrom",
            "outputs": [],
            "stateMutability": "nonpayable",
            "type": "function"
        },
        {
            "inputs": [
                {
                    "internalType": "address",
                    "name": "operator",
                    "type": "address"
                },
                {
                    "internalType": "bool",
                    "name": "approved",
                    "type": "bool"
                }
            ],
            "name": "setApprovalForAll",
            "outputs": [],
            "stateMutability": "nonpayable",
            "type": "function"
        },
        {
            "inputs": [
                {
                    "internalType": "bytes4",
                    "name": "interfaceId",
                    "type": "bytes4"
                }
            ],
            "name": "supportsInterface",
            "outputs": [
                {
                    "internalType": "bool",
                    "name": "",
                    "type": "bool"
                }
            ],
            "stateMutability": "view",
            "type": "function"
        },
        {
            "inputs": [],
            "name": "symbol",
            "outputs": [
                {
                    "internalType": "string",
                    "name": "",
                    "type": "string"
                }
            ],
            "stateMutability": "view",
            "type": "function"
        },
        {
            "inputs": [
                {
                    "internalType": "uint256",
                    "name": "tokenId",
                    "type": "uint256"
                }
            ],
            "name": "tokenURI",
            "outputs": [
                {
                    "internalType": "string",
                    "name": "",
                    "type": "string"
                }
            ],
            "stateMutability": "view",
            "type": "function"
        },
        {
            "inputs": [
                {
                    "internalType": "address",
                    "name": "from",
                    "type": "address"
                },
                {
                    "internalType": "address",
                    "name": "to",
                    "type": "address"
                },
                {
                    "internalType": "uint256",
                    "name": "tokenId",
                    "type": "uint256"
                }
            ],
            "name": "transferFrom",
            "outputs": [],
            "stateMutability": "nonpayable",
            "type": "function"
        }
    ],
    "bytecode": "0x608060405260405180610160016040528061012f81526020016200419361012f9139600890816200003191906200078b565b506040518061012001604052806040518060400160405280600381526020017f45766d000000000000000000000000000000000000000000000000000000000081525081526020016040518060400160405280600681526020017f4b6563636b61000000000000000000000000000000000000000000000000000081525081526020016040518060400160405280600481526020017f4d696e740000000000000000000000000000000000000000000000000000000081525081526020016040518060400160405280600c81526020017f506174726963696154726565000000000000000000000000000000000000000081525081526020016040518060400160405280600881526020017f536f6c696469747900000000000000000000000000000000000000000000000081525081526020016040518060400160405280600e81526020017f566974616c696b4275746572696e00000000000000000000000000000000000081525081526020016040518060400160405280600581526020017f455243323000000000000000000000000000000000000000000000000000000081525081526020016040518060400160405280600681526020017f455243373231000000000000000000000000000000000000000000000000000081525081526020016040518060400160405280600e81526020017f547572696e67436f6d706c65746f00000000000000000000000000000000000081525081525060099060096200026192919062000424565b506032600a553480156200027457600080fd5b506040518060400160405280600881526020017f62637273704e46540000000000000000000000000000000000000000000000008152506040518060400160405280600881526020017f42434d544f4b454e0000000000000000000000000000000000000000000000008152508160009081620002f291906200078b565b5080600190816200030491906200078b565b505050620003526040518060400160405280601f81526020017f74686973206973206d79204e465420636f6e74726163742e2057484f412120008152506200035860201b62000df11760201c565b62000925565b620003f8816040516024016200036f919062000901565b6040516020818303038152906040527f41304fac000000000000000000000000000000000000000000000000000000007bffffffffffffffffffffffffffffffffffffffffffffffffffffffff19166020820180517bffffffffffffffffffffffffffffffffffffffffffffffffffffffff8381831617835250505050620003fb60201b60201c565b50565b60008151905060006a636f6e736f6c652e6c6f679050602083016000808483855afa5050505050565b82805482825590600052602060002090810192821562000471579160200282015b82811115620004705782518290816200045f91906200078b565b509160200191906001019062000445565b5b50905062000480919062000484565b5090565b5b80821115620004a857600081816200049e9190620004ac565b5060010162000485565b5090565b508054620004ba906200057a565b6000825580601f10620004ce5750620004ef565b601f016020900490600052602060002090810190620004ee9190620004f2565b5b50565b5b808211156200050d576000816000905550600101620004f3565b5090565b600081519050919050565b7f4e487b7100000000000000000000000000000000000000000000000000000000600052604160045260246000fd5b7f4e487b7100000000000000000000000000000000000000000000000000000000600052602260045260246000fd5b600060028204905060018216806200059357607f821691505b602082108103620005a957620005a86200054b565b5b50919050565b60008190508160005260206000209050919050565b60006020601f8301049050919050565b600082821b905092915050565b600060088302620006137fffffffffffffffffffffffffffffffffffffffffffffffffffffffffffffffff82620005d4565b6200061f8683620005d4565b95508019841693508086168417925050509392505050565b6000819050919050565b6000819050919050565b60006200066c62000666620006608462000637565b62000641565b62000637565b9050919050565b6000819050919050565b62000688836200064b565b620006a0620006978262000673565b848454620005e1565b825550505050565b600090565b620006b7620006a8565b620006c48184846200067d565b505050565b5b81811015620006ec57620006e0600082620006ad565b600181019050620006ca565b5050565b601f8211156200073b576200070581620005af565b6200071084620005c4565b8101602085101562000720578190505b620007386200072f85620005c4565b830182620006c9565b50505b505050565b600082821c905092915050565b6000620007606000198460080262000740565b1980831691505092915050565b60006200077b83836200074d565b9150826002028217905092915050565b620007968262000511565b67ffffffffffffffff811115620007b257620007b16200051c565b5b620007be82546200057a565b620007cb828285620006f0565b600060209050601f831160018114620008035760008415620007ee578287015190505b620007fa85826200076d565b8655506200086a565b601f1984166200081386620005af565b60005b828110156200083d5784890151825560018201915060208501945060208101905062000816565b868310156200085d578489015162000859601f8916826200074d565b8355505b6001600288020188555050505b505050505050565b600082825260208201905092915050565b60005b83811015620008a357808201518184015260208101905062000886565b60008484015250505050565b6000601f19601f8301169050919050565b6000620008cd8262000511565b620008d9818562000872565b9350620008eb81856020860162000883565b620008f681620008af565b840191505092915050565b600060208201905081810360008301526200091d8184620008c0565b905092915050565b61385e80620009356000396000f3fe608060405234801561001057600080fd5b50600436106101005760003560e01c806370a0823111610097578063b88d4fde11610066578063b88d4fde146102bf578063c87b56dd146102db578063de9d132f1461030b578063e985e9c51461031557610100565b806370a082311461023757806395d89b4114610267578063a22cb46514610285578063b4c3b8be146102a157610100565b806323b872dd116100d357806323b872dd1461019f5780633e1831dd146101bb57806342842e0e146101eb5780636352211e1461020757610100565b806301ffc9a71461010557806306fdde0314610135578063081812fc14610153578063095ea7b314610183575b600080fd5b61011f600480360381019061011a919061220b565b610345565b60405161012c9190612253565b60405180910390f35b61013d610427565b60405161014a91906122fe565b60405180910390f35b61016d60048036038101906101689190612356565b6104b9565b60405161017a91906123c4565b60405180910390f35b61019d6004803603810190610198919061240b565b6104ff565b005b6101b960048036038101906101b4919061244b565b610616565b005b6101d560048036038101906101d09190612356565b610676565b6040516101e291906122fe565b60405180910390f35b6102056004803603810190610200919061244b565b61076e565b005b610221600480360381019061021c9190612356565b61078e565b60405161022e91906123c4565b60405180910390f35b610251600480360381019061024c919061249e565b610814565b60405161025e91906124da565b60405180910390f35b61026f6108cb565b60405161027c91906122fe565b60405180910390f35b61029f600480360381019061029a9190612521565b61095d565b005b6102a9610973565b6040516102b691906124da565b60405180910390f35b6102d960048036038101906102d49190612696565b610984565b005b6102f560048036038101906102f09190612356565b6109e6565b60405161030291906122fe565b60405180910390f35b610313610af8565b005b61032f600480360381019061032a9190612719565b610d5d565b60405161033c9190612253565b60405180910390f35b60007f80ac58cd000000000000000000000000000000000000000000000000000000007bffffffffffffffffffffffffffffffffffffffffffffffffffffffff1916827bffffffffffffffffffffffffffffffffffffffffffffffffffffffff1916148061041057507f5b5e139f000000000000000000000000000000000000000000000000000000007bffffffffffffffffffffffffffffffffffffffffffffffffffffffff1916827bffffffffffffffffffffffffffffffffffffffffffffffffffffffff1916145b80610420575061041f82610e8a565b5b9050919050565b60606000805461043690612788565b80601f016020809104026020016040519081016040528092919081815260200182805461046290612788565b80156104af5780601f10610484576101008083540402835291602001916104af565b820191906000526020600020905b81548152906001019060200180831161049257829003601f168201915b5050505050905090565b60006104c482610ef4565b6004600083815260200190815260200160002060009054906101000a900473ffffffffffffffffffffffffffffffffffffffff169050919050565b600061050a8261078e565b90508073ffffffffffffffffffffffffffffffffffffffff168373ffffffffffffffffffffffffffffffffffffffff160361057a576040517f08c379a00000000000000000000000000000000000000000000000000000000081526004016105719061282b565b60405180910390fd5b8073ffffffffffffffffffffffffffffffffffffffff16610599610f3f565b73ffffffffffffffffffffffffffffffffffffffff1614806105c857506105c7816105c2610f3f565b610d5d565b5b610607576040517f08c379a00000000000000000000000000000000000000000000000000000000081526004016105fe906128bd565b60405180910390fd5b6106118383610f47565b505050565b610627610621610f3f565b82611000565b610666576040517f08c379a000000000000000000000000000000000000000000000000000000000815260040161065d9061294f565b60405180910390fd5b610671838383611095565b505050565b606060006106aa6106868461138e565b60405160200161069691906129f7565b60405160208183030381529060405261145c565b9050600980549050816106bd9190612a48565b9050600981815481106106d3576106d2612a79565b5b9060005260206000200180546106e890612788565b80601f016020809104026020016040519081016040528092919081815260200182805461071490612788565b80156107615780601f1061073657610100808354040283529160200191610761565b820191906000526020600020905b81548152906001019060200180831161074457829003601f168201915b5050505050915050919050565b61078983838360405180602001604052806000815250610984565b505050565b60008061079a8361148f565b9050600073ffffffffffffffffffffffffffffffffffffffff168173ffffffffffffffffffffffffffffffffffffffff160361080b576040517f08c379a000000000000000000000000000000000000000000000000000000000815260040161080290612af4565b60405180910390fd5b80915050919050565b60008073ffffffffffffffffffffffffffffffffffffffff168273ffffffffffffffffffffffffffffffffffffffff1603610884576040517f08c379a000000000000000000000000000000000000000000000000000000000815260040161087b90612b86565b60405180910390fd5b600360008373ffffffffffffffffffffffffffffffffffffffff1673ffffffffffffffffffffffffffffffffffffffff168152602001908152602001600020549050919050565b6060600180546108da90612788565b80601f016020809104026020016040519081016040528092919081815260200182805461090690612788565b80156109535780601f1061092857610100808354040283529160200191610953565b820191906000526020600020905b81548152906001019060200180831161093657829003601f168201915b5050505050905090565b61096f610968610f3f565b83836114cc565b5050565b600061097f6007611638565b905090565b61099561098f610f3f565b83611000565b6109d4576040517f08c379a00000000000000000000000000000000000000000000000000000000081526004016109cb9061294f565b60405180910390fd5b6109e084848484611646565b50505050565b60606109f182610ef4565b6000600660008481526020019081526020016000208054610a1190612788565b80601f0160208091040260200160405190810160405280929190818152602001828054610a3d90612788565b8015610a8a5780601f10610a5f57610100808354040283529160200191610a8a565b820191906000526020600020905b815481529060010190602001808311610a6d57829003601f168201915b505050505090506000610a9b6116a2565b90506000815103610ab0578192505050610af3565b600082511115610ae5578082604051602001610acd929190612ba6565b60405160208183030381529060405292505050610af3565b610aee846116b9565b925050505b919050565b6000610b046007611638565b9050600a54811115610b4b576040517f08c379a0000000000000000000000000000000000000000000000000000000008152600401610b4290612c16565b60405180910390fd5b6000610b5682610676565b9050610b976040518060400160405280601781526020017f746869732069732064652072616e646f6d20776f72642000000000000000000081525082611721565b6000600882604051602001610bad929190612d1a565b6040516020818303038152906040529050610bfd6040518060400160405280600481526020017f535647200000000000000000000000000000000000000000000000000000000081525082611721565b6000610c3183610c0c846117bd565b604051602001610c1d929190612e79565b6040516020818303038152906040526117bd565b9050600081604051602001610c469190612f0a565b6040516020818303038152906040529050610c956040518060400160405280601581526020017f0a2d2d2d2d2d2d2d2d2d2d2d2d2d2d2d2d2d2d2d2d0000000000000000000000815250610df1565b610c9e81610df1565b610cdc6040518060400160405280601581526020017f2d2d2d2d2d2d2d2d2d2d2d2d2d2d2d2d2d2d2d2d0a0000000000000000000000815250610df1565b610ce63386611954565b610cf08582611972565b610cfa60076119df565b7febb98688741ffa4c7589bf325de30cf7becb63de567842e1ccdb6cb949fdc82c3386604051610d2b929190612f2c565b60405180910390a1610d566040518060600160405280602581526020016137c46025913986336119f5565b5050505050565b6000600560008473ffffffffffffffffffffffffffffffffffffffff1673ffffffffffffffffffffffffffffffffffffffff16815260200190815260200160002060008373ffffffffffffffffffffffffffffffffffffffff1673ffffffffffffffffffffffffffffffffffffffff16815260200190815260200160002060009054906101000a900460ff16905092915050565b610e8781604051602401610e0591906122fe565b6040516020818303038152906040527f41304fac000000000000000000000000000000000000000000000000000000007bffffffffffffffffffffffffffffffffffffffffffffffffffffffff19166020820180517bffffffffffffffffffffffffffffffffffffffffffffffffffffffff8381831617835250505050611a94565b50565b60007f01ffc9a7000000000000000000000000000000000000000000000000000000007bffffffffffffffffffffffffffffffffffffffffffffffffffffffff1916827bffffffffffffffffffffffffffffffffffffffffffffffffffffffff1916149050919050565b610efd81611abd565b610f3c576040517f08c379a0000000000000000000000000000000000000000000000000000000008152600401610f3390612af4565b60405180910390fd5b50565b600033905090565b816004600083815260200190815260200160002060006101000a81548173ffffffffffffffffffffffffffffffffffffffff021916908373ffffffffffffffffffffffffffffffffffffffff160217905550808273ffffffffffffffffffffffffffffffffffffffff16610fba8361078e565b73ffffffffffffffffffffffffffffffffffffffff167f8c5be1e5ebec7d5bd14f71427d1e84f3dd0314c0f7b2291e5b200ac8c7c3b92560405160405180910390a45050565b60008061100c8361078e565b90508073ffffffffffffffffffffffffffffffffffffffff168473ffffffffffffffffffffffffffffffffffffffff16148061104e575061104d8185610d5d565b5b8061108c57508373ffffffffffffffffffffffffffffffffffffffff16611074846104b9565b73ffffffffffffffffffffffffffffffffffffffff16145b91505092915050565b8273ffffffffffffffffffffffffffffffffffffffff166110b58261078e565b73ffffffffffffffffffffffffffffffffffffffff161461110b576040517f08c379a000000000000000000000000000000000000000000000000000000000815260040161110290612fc7565b60405180910390fd5b600073ffffffffffffffffffffffffffffffffffffffff168273ffffffffffffffffffffffffffffffffffffffff160361117a576040517f08c379a000000000000000000000000000000000000000000000000000000000815260040161117190613059565b60405180910390fd5b6111878383836001611afe565b8273ffffffffffffffffffffffffffffffffffffffff166111a78261078e565b73ffffffffffffffffffffffffffffffffffffffff16146111fd576040517f08c379a00000000000000000000000000000000000000000000000000000000081526004016111f490612fc7565b60405180910390fd5b6004600082815260200190815260200160002060006101000a81549073ffffffffffffffffffffffffffffffffffffffff02191690556001600360008573ffffffffffffffffffffffffffffffffffffffff1673ffffffffffffffffffffffffffffffffffffffff168152602001908152602001600020600082825403925050819055506001600360008473ffffffffffffffffffffffffffffffffffffffff1673ffffffffffffffffffffffffffffffffffffffff16815260200190815260200160002060008282540192505081905550816002600083815260200190815260200160002060006101000a81548173ffffffffffffffffffffffffffffffffffffffff021916908373ffffffffffffffffffffffffffffffffffffffff160217905550808273ffffffffffffffffffffffffffffffffffffffff168473ffffffffffffffffffffffffffffffffffffffff167fddf252ad1be2c89b69c2b068fc378daa952ba7f163c4a11628f55a4df523b3ef60405160405180910390a46113898383836001611c24565b505050565b60606000600161139d84611c2a565b01905060008167ffffffffffffffff8111156113bc576113bb61256b565b5b6040519080825280601f01601f1916602001820160405280156113ee5781602001600182028036833780820191505090505b509050600082602001820190505b600115611451578080600190039150507f3031323334353637383961626364656600000000000000000000000000000000600a86061a8153600a858161144557611444612a19565b5b049450600085036113fc575b819350505050919050565b60008160405160200161146f9190613079565b6040516020818303038152906040528051906020012060001c9050919050565b60006002600083815260200190815260200160002060009054906101000a900473ffffffffffffffffffffffffffffffffffffffff169050919050565b8173ffffffffffffffffffffffffffffffffffffffff168373ffffffffffffffffffffffffffffffffffffffff160361153a576040517f08c379a0000000000000000000000000000000000000000000000000000000008152600401611531906130dc565b60405180910390fd5b80600560008573ffffffffffffffffffffffffffffffffffffffff1673ffffffffffffffffffffffffffffffffffffffff16815260200190815260200160002060008473ffffffffffffffffffffffffffffffffffffffff1673ffffffffffffffffffffffffffffffffffffffff16815260200190815260200160002060006101000a81548160ff0219169083151502179055508173ffffffffffffffffffffffffffffffffffffffff168373ffffffffffffffffffffffffffffffffffffffff167f17307eab39ab6107e8899845ad3d59bd9653f200f220920489ca2b5937696c318360405161162b9190612253565b60405180910390a3505050565b600081600001549050919050565b611651848484611095565b61165d84848484611d7d565b61169c576040517f08c379a00000000000000000000000000000000000000000000000000000000081526004016116939061316e565b60405180910390fd5b50505050565b606060405180602001604052806000815250905090565b60606116c482610ef4565b60006116ce6116a2565b905060008151116116ee5760405180602001604052806000815250611719565b806116f88461138e565b604051602001611709929190612ba6565b6040516020818303038152906040525b915050919050565b6117b9828260405160240161173792919061318e565b6040516020818303038152906040527f4b5c4277000000000000000000000000000000000000000000000000000000007bffffffffffffffffffffffffffffffffffffffffffffffffffffffff19166020820180517bffffffffffffffffffffffffffffffffffffffffffffffffffffffff8381831617835250505050611a94565b5050565b6060600082519050600081036117e5576040518060200160405280600081525091505061194f565b600060036002836117f691906131f4565b6118009190613228565b600461180c9190613259565b9050600060208261181d91906131f4565b67ffffffffffffffff8111156118365761183561256b565b5b6040519080825280601f01601f1916602001820160405280156118685781602001600182028036833780820191505090505b50905060006040518060600160405280604081526020016137e9604091399050600181016020830160005b8681101561190c5760038101905062ffffff818a015116603f8160121c168401518060081b905060ff603f83600c1c1686015116810190508060081b905060ff603f8360061c1686015116810190508060081b905060ff603f831686015116810190508060e01b90508084526004840193505050611893565b506003860660018114611926576002811461193657611941565b613d3d60f01b6002830352611941565b603d60f81b60018303525b508484525050819450505050505b919050565b61196e828260405180602001604052806000815250611f04565b5050565b61197b82611abd565b6119ba576040517f08c379a00000000000000000000000000000000000000000000000000000000081526004016119b19061330d565b60405180910390fd5b806006600084815260200190815260200160002090816119da91906134c4565b505050565b6001816000016000828254019250508190555050565b611a8f838383604051602401611a0d93929190613596565b6040516020818303038152906040527f1c7ec448000000000000000000000000000000000000000000000000000000007bffffffffffffffffffffffffffffffffffffffffffffffffffffffff19166020820180517bffffffffffffffffffffffffffffffffffffffffffffffffffffffff8381831617835250505050611a94565b505050565b60008151905060006a636f6e736f6c652e6c6f679050602083016000808483855afa5050505050565b60008073ffffffffffffffffffffffffffffffffffffffff16611adf8361148f565b73ffffffffffffffffffffffffffffffffffffffff1614159050919050565b6001811115611c1e57600073ffffffffffffffffffffffffffffffffffffffff168473ffffffffffffffffffffffffffffffffffffffff1614611b925780600360008673ffffffffffffffffffffffffffffffffffffffff1673ffffffffffffffffffffffffffffffffffffffff1681526020019081526020016000206000828254611b8a91906135d4565b925050819055505b600073ffffffffffffffffffffffffffffffffffffffff168373ffffffffffffffffffffffffffffffffffffffff1614611c1d5780600360008573ffffffffffffffffffffffffffffffffffffffff1673ffffffffffffffffffffffffffffffffffffffff1681526020019081526020016000206000828254611c1591906131f4565b925050819055505b5b50505050565b50505050565b600080600090507a184f03e93ff9f4daa797ed6e38ed64bf6a1f0100000000000000008310611c88577a184f03e93ff9f4daa797ed6e38ed64bf6a1f0100000000000000008381611c7e57611c7d612a19565b5b0492506040810190505b6d04ee2d6d415b85acef81000000008310611cc5576d04ee2d6d415b85acef81000000008381611cbb57611cba612a19565b5b0492506020810190505b662386f26fc100008310611cf457662386f26fc100008381611cea57611ce9612a19565b5b0492506010810190505b6305f5e1008310611d1d576305f5e1008381611d1357611d12612a19565b5b0492506008810190505b6127108310611d42576127108381611d3857611d37612a19565b5b0492506004810190505b60648310611d655760648381611d5b57611d5a612a19565b5b0492506002810190505b600a8310611d74576001810190505b80915050919050565b6000611d9e8473ffffffffffffffffffffffffffffffffffffffff16611f5f565b15611ef7578373ffffffffffffffffffffffffffffffffffffffff1663150b7a02611dc7610f3f565b8786866040518563ffffffff1660e01b8152600401611de9949392919061365d565b6020604051808303816000875af1925050508015611e2557506040513d601f19601f82011682018060405250810190611e2291906136be565b60015b611ea7573d8060008114611e55576040519150601f19603f3d011682016040523d82523d6000602084013e611e5a565b606091505b506000815103611e9f576040517f08c379a0000000000000000000000000000000000000000000000000000000008152600401611e969061316e565b60405180910390fd5b805181602001fd5b63150b7a0260e01b7bffffffffffffffffffffffffffffffffffffffffffffffffffffffff1916817bffffffffffffffffffffffffffffffffffffffffffffffffffffffff191614915050611efc565b600190505b949350505050565b611f0e8383611f82565b611f1b6000848484611d7d565b611f5a576040517f08c379a0000000000000000000000000000000000000000000000000000000008152600401611f519061316e565b60405180910390fd5b505050565b6000808273ffffffffffffffffffffffffffffffffffffffff163b119050919050565b600073ffffffffffffffffffffffffffffffffffffffff168273ffffffffffffffffffffffffffffffffffffffff1603611ff1576040517f08c379a0000000000000000000000000000000000000000000000000000000008152600401611fe890613737565b60405180910390fd5b611ffa81611abd565b1561203a576040517f08c379a0000000000000000000000000000000000000000000000000000000008152600401612031906137a3565b60405180910390fd5b612048600083836001611afe565b61205181611abd565b15612091576040517f08c379a0000000000000000000000000000000000000000000000000000000008152600401612088906137a3565b60405180910390fd5b6001600360008473ffffffffffffffffffffffffffffffffffffffff1673ffffffffffffffffffffffffffffffffffffffff16815260200190815260200160002060008282540192505081905550816002600083815260200190815260200160002060006101000a81548173ffffffffffffffffffffffffffffffffffffffff021916908373ffffffffffffffffffffffffffffffffffffffff160217905550808273ffffffffffffffffffffffffffffffffffffffff16600073ffffffffffffffffffffffffffffffffffffffff167fddf252ad1be2c89b69c2b068fc378daa952ba7f163c4a11628f55a4df523b3ef60405160405180910390a461219b600083836001611c24565b5050565b6000604051905090565b600080fd5b600080fd5b60007fffffffff0000000000000000000000000000000000000000000000000000000082169050919050565b6121e8816121b3565b81146121f357600080fd5b50565b600081359050612205816121df565b92915050565b600060208284031215612221576122206121a9565b5b600061222f848285016121f6565b91505092915050565b60008115159050919050565b61224d81612238565b82525050565b60006020820190506122686000830184612244565b92915050565b600081519050919050565b600082825260208201905092915050565b60005b838110156122a857808201518184015260208101905061228d565b60008484015250505050565b6000601f19601f8301169050919050565b60006122d08261226e565b6122da8185612279565b93506122ea81856020860161228a565b6122f3816122b4565b840191505092915050565b6000602082019050818103600083015261231881846122c5565b905092915050565b6000819050919050565b61233381612320565b811461233e57600080fd5b50565b6000813590506123508161232a565b92915050565b60006020828403121561236c5761236b6121a9565b5b600061237a84828501612341565b91505092915050565b600073ffffffffffffffffffffffffffffffffffffffff82169050919050565b60006123ae82612383565b9050919050565b6123be816123a3565b82525050565b60006020820190506123d960008301846123b5565b92915050565b6123e8816123a3565b81146123f357600080fd5b50565b600081359050612405816123df565b92915050565b60008060408385031215612422576124216121a9565b5b6000612430858286016123f6565b925050602061244185828601612341565b9150509250929050565b600080600060608486031215612464576124636121a9565b5b6000612472868287016123f6565b9350506020612483868287016123f6565b925050604061249486828701612341565b9150509250925092565b6000602082840312156124b4576124b36121a9565b5b60006124c2848285016123f6565b91505092915050565b6124d481612320565b82525050565b60006020820190506124ef60008301846124cb565b92915050565b6124fe81612238565b811461250957600080fd5b50565b60008135905061251b816124f5565b92915050565b60008060408385031215612538576125376121a9565b5b6000612546858286016123f6565b92505060206125578582860161250c565b9150509250929050565b600080fd5b600080fd5b7f4e487b7100000000000000000000000000000000000000000000000000000000600052604160045260246000fd5b6125a3826122b4565b810181811067ffffffffffffffff821117156125c2576125c161256b565b5b80604052505050565b60006125d561219f565b90506125e1828261259a565b919050565b600067ffffffffffffffff8211156126015761260061256b565b5b61260a826122b4565b9050602081019050919050565b82818337600083830152505050565b6000612639612634846125e6565b6125cb565b90508281526020810184848401111561265557612654612566565b5b612660848285612617565b509392505050565b600082601f83011261267d5761267c612561565b5b813561268d848260208601612626565b91505092915050565b600080600080608085870312156126b0576126af6121a9565b5b60006126be878288016123f6565b94505060206126cf878288016123f6565b93505060406126e087828801612341565b925050606085013567ffffffffffffffff811115612701576127006121ae565b5b61270d87828801612668565b91505092959194509250565b600080604083850312156127305761272f6121a9565b5b600061273e858286016123f6565b925050602061274f858286016123f6565b9150509250929050565b7f4e487b7100000000000000000000000000000000000000000000000000000000600052602260045260246000fd5b600060028204905060018216806127a057607f821691505b6020821081036127b3576127b2612759565b5b50919050565b7f4552433732313a20617070726f76616c20746f2063757272656e74206f776e6560008201527f7200000000000000000000000000000000000000000000000000000000000000602082015250565b6000612815602183612279565b9150612820826127b9565b604082019050919050565b6000602082019050818103600083015261284481612808565b9050919050565b7f4552433732313a20617070726f76652063616c6c6572206973206e6f7420746f60008201527f6b656e206f776e6572206f7220617070726f76656420666f7220616c6c000000602082015250565b60006128a7603d83612279565b91506128b28261284b565b604082019050919050565b600060208201905081810360008301526128d68161289a565b9050919050565b7f4552433732313a2063616c6c6572206973206e6f7420746f6b656e206f776e6560008201527f72206f7220617070726f76656400000000000000000000000000000000000000602082015250565b6000612939602d83612279565b9150612944826128dd565b604082019050919050565b600060208201905081810360008301526129688161292c565b9050919050565b600081905092915050565b7f46495253545f574f524400000000000000000000000000000000000000000000600082015250565b60006129b0600a8361296f565b91506129bb8261297a565b600a82019050919050565b60006129d18261226e565b6129db818561296f565b93506129eb81856020860161228a565b80840191505092915050565b6000612a02826129a3565b9150612a0e82846129c6565b915081905092915050565b7f4e487b7100000000000000000000000000000000000000000000000000000000600052601260045260246000fd5b6000612a5382612320565b9150612a5e83612320565b925082612a6e57612a6d612a19565b5b828206905092915050565b7f4e487b7100000000000000000000000000000000000000000000000000000000600052603260045260246000fd5b7f4552433732313a20696e76616c696420746f6b656e2049440000000000000000600082015250565b6000612ade601883612279565b9150612ae982612aa8565b602082019050919050565b60006020820190508181036000830152612b0d81612ad1565b9050919050565b7f4552433732313a2061646472657373207a65726f206973206e6f74206120766160008201527f6c6964206f776e65720000000000000000000000000000000000000000000000602082015250565b6000612b70602983612279565b9150612b7b82612b14565b604082019050919050565b60006020820190508181036000830152612b9f81612b63565b9050919050565b6000612bb282856129c6565b9150612bbe82846129c6565b91508190509392505050565b7f546865726520617265206f6e6c79203530204e46545300000000000000000000600082015250565b6000612c00601683612279565b9150612c0b82612bca565b602082019050919050565b60006020820190508181036000830152612c2f81612bf3565b9050919050565b60008190508160005260206000209050919050565b60008154612c5881612788565b612c62818661296f565b94506001821660008114612c7d5760018114612c9257612cc5565b60ff1983168652811515820286019350612cc5565b612c9b85612c36565b60005b83811015612cbd57815481890152600182019150602081019050612c9e565b838801955050505b50505092915050565b7f3c2f746578743e3c2f7376673e00000000000000000000000000000000000000600082015250565b6000612d04600d8361296f565b9150612d0f82612cce565b600d82019050919050565b6000612d268285612c4b565b9150612d3282846129c6565b9150612d3d82612cf7565b91508190509392505050565b7f7b226e616d65223a202200000000000000000000000000000000000000000000600082015250565b6000612d7f600a8361296f565b9150612d8a82612d49565b600a82019050919050565b7f222c20226465736372697074696f6e223a2022546865206769667420666f722060008201527f706173732074686520746573742e222c2022696d616765223a2022646174613a60208201527f696d6167652f7376672b786d6c3b6261736536342c0000000000000000000000604082015250565b6000612e1760558361296f565b9150612e2282612d95565b605582019050919050565b7f227d000000000000000000000000000000000000000000000000000000000000600082015250565b6000612e6360028361296f565b9150612e6e82612e2d565b600282019050919050565b6000612e8482612d72565b9150612e9082856129c6565b9150612e9b82612e0a565b9150612ea782846129c6565b9150612eb282612e56565b91508190509392505050565b7f646174613a6170706c69636174696f6e2f6a736f6e3b6261736536342c000000600082015250565b6000612ef4601d8361296f565b9150612eff82612ebe565b601d82019050919050565b6000612f1582612ee7565b9150612f2182846129c6565b915081905092915050565b6000604082019050612f4160008301856123b5565b612f4e60208301846124cb565b9392505050565b7f4552433732313a207472616e736665722066726f6d20696e636f72726563742060008201527f6f776e6572000000000000000000000000000000000000000000000000000000602082015250565b6000612fb1602583612279565b9150612fbc82612f55565b604082019050919050565b60006020820190508181036000830152612fe081612fa4565b9050919050565b7f4552433732313a207472616e7366657220746f20746865207a65726f2061646460008201527f7265737300000000000000000000000000000000000000000000000000000000602082015250565b6000613043602483612279565b915061304e82612fe7565b604082019050919050565b6000602082019050818103600083015261307281613036565b9050919050565b600061308582846129c6565b915081905092915050565b7f4552433732313a20617070726f766520746f2063616c6c657200000000000000600082015250565b60006130c6601983612279565b91506130d182613090565b602082019050919050565b600060208201905081810360008301526130f5816130b9565b9050919050565b7f4552433732313a207472616e7366657220746f206e6f6e20455243373231526560008201527f63656976657220696d706c656d656e7465720000000000000000000000000000602082015250565b6000613158603283612279565b9150613163826130fc565b604082019050919050565b600060208201905081810360008301526131878161314b565b9050919050565b600060408201905081810360008301526131a881856122c5565b905081810360208301526131bc81846122c5565b90509392505050565b7f4e487b7100000000000000000000000000000000000000000000000000000000600052601160045260246000fd5b60006131ff82612320565b915061320a83612320565b9250828201905080821115613222576132216131c5565b5b92915050565b600061323382612320565b915061323e83612320565b92508261324e5761324d612a19565b5b828204905092915050565b600061326482612320565b915061326f83612320565b925082820261327d81612320565b91508282048414831517613294576132936131c5565b5b5092915050565b7f45524337323155524953746f726167653a2055524920736574206f66206e6f6e60008201527f6578697374656e7420746f6b656e000000000000000000000000000000000000602082015250565b60006132f7602e83612279565b91506133028261329b565b604082019050919050565b60006020820190508181036000830152613326816132ea565b9050919050565b60006020601f8301049050919050565b600082821b905092915050565b60006008830261337a7fffffffffffffffffffffffffffffffffffffffffffffffffffffffffffffffff8261333d565b613384868361333d565b95508019841693508086168417925050509392505050565b6000819050919050565b60006133c16133bc6133b784612320565b61339c565b612320565b9050919050565b6000819050919050565b6133db836133a6565b6133ef6133e7826133c8565b84845461334a565b825550505050565b600090565b6134046133f7565b61340f8184846133d2565b505050565b5b81811015613433576134286000826133fc565b600181019050613415565b5050565b601f8211156134785761344981612c36565b6134528461332d565b81016020851015613461578190505b61347561346d8561332d565b830182613414565b50505b505050565b600082821c905092915050565b600061349b6000198460080261347d565b1980831691505092915050565b60006134b4838361348a565b9150826002028217905092915050565b6134cd8261226e565b67ffffffffffffffff8111156134e6576134e561256b565b5b6134f08254612788565b6134fb828285613437565b600060209050601f83116001811461352e576000841561351c578287015190505b61352685826134a8565b86555061358e565b601f19841661353c86612c36565b60005b828110156135645784890151825560018201915060208501945060208101905061353f565b86831015613581578489015161357d601f89168261348a565b8355505b6001600288020188555050505b505050505050565b600060608201905081810360008301526135b081866122c5565b90506135bf60208301856124cb565b6135cc60408301846123b5565b949350505050565b60006135df82612320565b91506135ea83612320565b9250828203905081811115613602576136016131c5565b5b92915050565b600081519050919050565b600082825260208201905092915050565b600061362f82613608565b6136398185613613565b935061364981856020860161228a565b613652816122b4565b840191505092915050565b600060808201905061367260008301876123b5565b61367f60208301866123b5565b61368c60408301856124cb565b818103606083015261369e8184613624565b905095945050505050565b6000815190506136b8816121df565b92915050565b6000602082840312156136d4576136d36121a9565b5b60006136e2848285016136a9565b91505092915050565b7f4552433732313a206d696e7420746f20746865207a65726f2061646472657373600082015250565b6000613721602083612279565b915061372c826136eb565b602082019050919050565b6000602082019050818103600083015261375081613714565b9050919050565b7f4552433732313a20746f6b656e20616c7265616479206d696e74656400000000600082015250565b600061378d601c83612279565b915061379882613757565b602082019050919050565b600060208201905081810360008301526137bc81613780565b905091905056fe416e204e465420772f20494420257320686173206265656e206d696e74656420746f2025734142434445464748494a4b4c4d4e4f505152535455565758595a6162636465666768696a6b6c6d6e6f707172737475767778797a303132333435363738392b2fa2646970667358221220a5e71ee67093f3d2c47541b9206e0b42965ed0e3041946a2369bd40932c50a5564736f6c634300081100333c73766720786d6c6e733d27687474703a2f2f7777772e77332e6f72672f323030302f73766727207072657365727665417370656374526174696f3d27784d696e594d696e206d656574272076696577426f783d273020302033353020333530273e3c7374796c653e2e62617365207b2066696c6c3a2077686974653b20666f6e742d66616d696c793a2073657269663b20666f6e742d73697a653a20323470783b207d3c2f7374796c653e3c726563742077696474683d273130302527206865696768743d2731303025272066696c6c3d27626c61636b27202f3e3c7465787420783d273530252720793d273530252720636c6173733d27626173652720646f6d696e616e742d626173656c696e653d276d6964646c652720746578742d616e63686f723d276d6964646c65273e",
    "linkReferences": {},
    "deployedLinkReferences": {}
}